:100000000C9463000C948B000C948B000C94AC0843
:100010000C94AC080C94AC080C948B000C948B00E2
:100020000C948B000C948B000C948B000C94F007B8
:100030000C948B000C948B000C948B000C948B0014
:100040000C94A6070C948B000C9474070C944E0728
:100050000C948B000C948B000C948B000C948B00F4
:100060000C948B000C948B000000000024002700EF
:100070002A0000000008000201000003040700003D
:1000800000000000000000000000230026002900FE
:1000900000000000250028002B00040404040404D0
:1000A0000404020202020202030303030303010227
:1000B00004081020408001020408102001020408F6
:1000C000102024092D0E11241FBECFEFD8E0DEBF73
:1000D000CDBF11E0A0E0B1E0E6E9F5E202C0059095
:1000E0000D92A435B107D9F722E0A4E5B1E001C033
:1000F0001D92AE3AB207E1F710E0C2E6D0E004C0CC
:100100002197FE010E94BD10C136D107C9F70E9498
:100110003C0A0C94BE120C940000CF92DF92EF9236
:10012000FF92DC01A03282E0B807D4F5A53BB1050F
:1001300014F0A4EBB0E04091960228E830E0241BD4
:10014000310947FD3395220F331F220F331F6901F9
:10015000330FEE08FF084091970228E532E0241B98
:10016000310947FD3395220F331F220F331F032E12
:10017000000C440B550B2C193D094E095F09B7FFC4
:1001800002C0B0E0A0E00E94760F24EB30E040E037
:1001900050E00E944C0FC20ED31EE41EF51ED60185
:1001A000E0919502EC3080F52091960288E890E08D
:1001B000821B910927FD9395880F991F880F991F1E
:1001C000A817B90784F02091970288E592E0821B76
:1001D000910927FD9395880F991F880F991FA817DC
:1001E000B9070CF4CD010297880F991F4FB7F89407
:1001F0002E2F30E0F901EE0FFF1FE20FF31FE55B3A
:10020000FD4F928381834FBFFF90EF90DF90CF909F
:1002100008958F929F92AF92BF92CF92DF92EF920A
:10022000FF92CF93DF93A0919F0230E081113A2F8C
:100230008091A00290E0880F991FAC014A575F4F50
:10024000C090A502D090A602E090A702F090A8026C
:1002500060E070E0CB01FA01C591D49128812A2396
:1002600023130FC04B015C012FEF821A920AA20ADE
:10027000B20A6C157D058E059F0570F060E070E098
:10028000CB01DF91CF91FF90EF90DF90CF90BF90A7
:10029000AF909F908F900895C501B401DCCF8F92ED
:1002A0009F92AF92BF92CF92DF92EF92FF92809196
:1002B000970258E5C52E52E0D52EC81AD10887FD01
:1002C000D394CC0CDD1CCC0CDD1C0D2C000CEE08EA
:1002D000FF088091960278E8872E912C881A910861
:1002E00087FD9394880C991C880C991C092C000C90
:1002F000AA08BB08809195028F3FD1F190E0FC01E4
:10030000EE0FFF1FE80FF91FE55BFD4F8181928122
:1003100033E0880F991F3A95E1F7B0E0A0E044E0A0
:10032000B595A795979587954A95D1F702969C0123
:100330002F5F3F4F032E000C440B550B2819390932
:100340004A095B09A4EBB0E00E946B0FA70196017C
:10035000281939094A095B090E944C0FC901FF900D
:10036000EF90DF90CF90BF90AF909F908F900895C7
:1003700090E080E0DCCFAF92BF92CF92DF92EF921D
:10038000FF920F931F93CF93DF936C017B018B013F
:10039000040F151FEB015E01AE18BF08C017D1078F
:1003A00059F06991D601ED91FC910190F081E02D19
:1003B000C6010995892B79F7C501DF91CF911F916E
:1003C0000F91FF90EF90DF90CF90BF90AF90089586
:1003D000FC01538D448D252F30E0842F90E0821B4B
:1003E000930B541710F0CF96089501970895FC01D0
:1003F000918D828D981761F0A28DAE0FBF2FB11D28
:100400005D968C91928D9F5F9F73928F90E008957F
:100410008FEF9FEF0895FC01918D828D981731F039
:10042000828DE80FF11D858D90E008958FEF9FEF8D
:100430000895FC01918D228D892F90E0805C9F4F63
:10044000821B91098F73992708958EEA91E00E948B
:10045000190221E0892B09F420E0822F089580E021
:1004600090E0892B29F00E94250281110C94000054
:100470000895FC01A48DA80FB92FB11DA35ABF4F39
:100480002C91848D90E001968F739927848FA68993
:10049000B7892C93A089B1898C91837080648C93E7
:1004A000938D848D981306C00288F389E02D808196
:1004B0008F7D80830895EF92FF920F931F93CF93C8
:1004C000DF93EC0181E0888F9B8D8C8D98131AC08F
:1004D000E889F989808185FF15C09FB7F894EE8976
:1004E000FF896083E889F9898081837080648083D3
:1004F0009FBF81E090E0DF91CF911F910F91FF901E
:10050000EF900895F62E0B8D10E00F5F1F4F0F73C5
:100510001127E02E8C8D8E110CC00FB607FCFACF80
:10052000E889F989808185FFF5CFCE010E943902E3
:10053000F1CFEB8DEC0FFD2FF11DE35AFF4FF08251
:100540009FB7F8940B8FEA89FB8980818062CFCFB7
:10055000CF93DF93EC01888D8823B9F0AA89BB89FA
:10056000E889F9898C9185FD03C0808186FD0DC0E5
:100570000FB607FCF7CF8C9185FFF2CF808185FF06
:10058000EDCFCE010E943902E9CFDF91CF910895DE
:1005900090E0FC01EE58FF4F2491FC01E255FF4F23
:1005A0003491FC01E656FF4FE491EE23C9F022237B
:1005B00039F0233001F1A8F4213019F1223029F16A
:1005C000F0E0EE0FFF1FE057FF4FA591B4918FB7FA
:1005D000F894EC91611126C030953E233C938FBF77
:1005E00008952730A9F02830C9F0243049F78091C8
:1005F00080008F7D03C0809180008F778093800082
:10060000DFCF84B58F7784BDDBCF84B58F7DFBCF03
:100610008091B0008F778093B000D2CF8091B000EE
:100620008F7DF9CF3E2BDACFCF93DF9390E0FC01A3
:10063000E255FF4F249186569F4FFC0184918823F9
:10064000C9F090E0880F991FFC01E859FF4FA59170
:10065000B491FC01E057FF4FC591D49161110DC0D9
:100660009FB7F8948C91209582238C9388812823BE
:1006700028839FBFDF91CF910895623051F49FB7D7
:10068000F8943C91822F809583238C93E8812E2BC4
:10069000EFCF8FB7F894EC912E2B2C938FBFEACF2E
:1006A000809195028C3008F051C061E08AE00E9490
:1006B000140380919502282F30E0F901EE0FFF1FFF
:1006C000E20FF31FE55BFD4F9081907C9A60908371
:1006D00010929602109297022CE0622F0E948910CD
:1006E000829FB001112430E020E0AB01420F531F84
:1006F000FA01EE0FFF1FE40FF51FE55BFD4F908140
:1007000096FD16C02F5F3F4F2C30310571F78111D8
:100710000FC01092800082E08093810010928500CB
:1007200010928400B19A80916F00826080936F0074
:10073000E09195028E2F90E0FC01EE0FFF1FE80F75
:10074000F91FE55BFD4F8081806480838091950275
:1007500008953FB7F8948091980190919901A091E4
:100760009A01B0919B0126B5A89B05C02F3F19F0B7
:100770000196A11DB11D3FBFBA2FA92F982F882721
:10078000BC01CD01620F711D811D911D42E0660FFC
:10079000771F881F991F4A95D1F708958F929F92CE
:1007A000AF92BF92CF92DF92EF92FF924B015C012A
:1007B0000E94A9036B017C010E94A9036C197D09A9
:1007C0008E099F09683E734081059105A8F321E0D9
:1007D000821A9108A108B10888EEC80E83E0D81EDD
:1007E000E11CF11C81149104A104B10429F7FF90CC
:1007F000EF90DF90CF90BF90AF909F908F90089533
:10080000CF92DF92EF92FF920F931F93CF93DF93DC
:10081000CDB7DEB7C054D1400FB6F894DEBF0FBEDF
:10082000CDBF2FB7F8948091AA019091AB01A09110
:10083000AC01B091AD012FBF4091A1025091A20235
:100840006091A3027091A4028C019D01041B150B01
:10085000260B370BB901A801403D574061057105D2
:1008600090F48091A902C05CDE4F0FB6F894DEBF11
:100870000FBECDBFDF91CF911F910F91FF90EF90F1
:10088000DF90CF9008958093A1029093A202A0934D
:10089000A302B093A40210929C0210929B021092A9
:1008A0009A02109299021092980261E080919D0242
:1008B0000E94C8026AEF70E080E090E00E94CE03E0
:1008C00061E080919D020E94140360E080919D028E
:1008D0000E94C80264E170E080E090E00E94CE03D4
:1008E000F89461E080919D020E94C8028BE990E03B
:1008F0000197F1F762E080919D020E94140383E268
:1009000090E00197F1F780E00E940901672B682BC6
:10091000692B29F41092A902789480E0A4CF81E099
:100920000E940901672B682B692BA1F38E010F5FD1
:100930001F4F6E012FEBC21A2EEFD20A780180E012
:100940000E940901F701608371838283938381E0B0
:100950000E940901F7016483758386839783F8E019
:10096000EF0EF11CEC14FD0451F7789430E020E018
:10097000F801C080D180E280F38044815581668196
:100980007781C114D104E104F10429F04115510526
:100990006105710519F41092A902BFCFF90183E036
:1009A000F595E7958A95E1F7E856FD4F8081880F28
:1009B000C416D506E606F70610F180832F5F3F4F79
:1009C000085F1F4F2832310599F640919C02209113
:1009D000980280919902280F3327331F80919A0241
:1009E000280F311D80919B02820F932F911D992713
:1009F0004817190681F681E08093A90234CF8160FF
:100A0000DCCF20919E0130919F012817390771F4A6
:100A100090919C0180919D01981741F0E0919C017B
:100A2000F0E0EA5AFE4F808190E008958FEF9FEF4B
:100A300008950895EF92FF920F931F93CF93DF9342
:100A4000DC015C96ED90FC905D97E114F10479F483
:100A500081E090E013969C938E93129790E080E053
:100A6000DF91CF911F910F91FF90EF9008955196D4
:100A7000ED91FC91529750968C915097982F9095AC
:100A80000FB75E962C915E97122F127021FD609524
:100A9000F8942081112319F1282B2083E701219755
:100AA000F1F728E0462F50E0308160FF1AC0382B64
:100AB0003083E7012197F1F7BA01759567952150C9
:100AC00089F7112381F08081892380830FBF5C9691
:100AD0008D919C910197F1F781E090E0C1CF29239E
:100AE000DCCF3923E5CF9081892BEFCF20919E0178
:100AF00030919F012817390771F480919D01209151
:100B00009C0190E0805C9F4F821B910960E470E043
:100B10000E949510089590E080E0089520919E0134
:100B200030919F0128173907B9F490919C01809169
:100B30009D01981789F0E0919C01F0E0EA5AFE4F80
:100B4000808120919C0130E02F5F3F4F2F7333272E
:100B500020939C0190E008958FEF9FEF089590E01F
:100B600080E0089561E0811101C060E084E00C94B0
:100B7000C80261E0811101C060E087E00C94C80206
:100B8000662319F061E0811101C060E088E00C94F7
:100B9000C802861797074CF481E08093A701609103
:100BA00004018091A7010C94C0051092A701F7CF12
:100BB000882309F44AC00E944F010F9779F4E0910D
:100BC00095028E2F90E0FC01EE0FFF1FE80FF91F3A
:100BD000E55BFD4F80818F7B808308950E945003E9
:100BE00082E390E00E948D0064E670E080E090E097
:100BF0000E94CE030E94500388E290E00E948D0084
:100C000064E670E080E090E00E94CE030E94500312
:100C10008EE190E00E948D0068E770E080E090E057
:100C20000E94CE038FE090E0909355018093540191
:100C30000E9450038FE090E00E948D0064E670E017
:100C400080E090E00E94CE03BACF0E944F01CC9783
:100C500009F4B5CF0E9450038EE190E00E948D0010
:100C600066E970E080E090E00E94CE030E945003AD
:100C700088E290E00E948D0068E770E080E090E0FC
:100C80000E94CE030E94500382E390E00E948D00F8
:100C900068E770E080E090E00E94CE038CE390E093
:100CA00090935501809354010E9450038CE390E08F
:100CB0000E948D0068E770E080E090E0C3CFCF93A2
:100CC000C0910401209105013091060128173907D0
:100CD0008CF481E08093A9018093A8018093A701FF
:100CE0000E94D80581E00E94B9056C2F81E0CF9168
:100CF0000C94C0051092A9011092A8011092A701AE
:100D000080E00E94D80580E00E94B9056C2F80E049
:100D1000EECF8F929F92AF92BF920F931F93CF937C
:100D2000DF93CDB7DEB7A1970FB6F894DEBF0FBE45
:100D3000CDBF19A2423008F44AE08E010F5D1F4F6B
:100D4000842E912CB12CA12CA50194010E94B50FE9
:100D5000E62FB901CA01EA3044F5E05DD801EE930F
:100D60008D01232B242B252B79F790E080E0109721
:100D700069F0FD0101900020E9F73197AF014A1BAE
:100D80005B0BBD0180E792E00E94BB01A1960FB60C
:100D9000F894DEBF0FBECDBFDF91CF911F910F91B1
:100DA000BF90AF909F908F900895E95CD7CFCF927E
:100DB000DF92EF92FF92CF93DF936C01990FEE08D1
:100DC000FF08F7FE19C06DE280E792E00E941A0565
:100DD000EC0166277727CB016C197D098E099F09E5
:100DE0004AE00E9489068C0F9D1FDF91CF91FF90F2
:100DF000EF90DF90CF9008954AE0C701B601DF91F0
:100E0000CF91FF90EF90DF90CF900C948906CF9315
:100E1000DF93EC0180918F0290919002009759F03E
:100E200020919102309192022C173D0720F081E031
:100E3000DF91CF910895BE016F5F7F4F0E94E8114F
:100E4000009789F09093900280938F02D093920242
:100E5000C09391022091930230919402232B39F791
:100E6000FC011082E4CF80E0E3CF20919302309127
:100E70009402232B39F421E0FC018081882361F066
:100E800020E00AC0BC0180918F02909190020E94E4
:100E9000AE1221E0892BA1F7822F08951F920F92A5
:100EA0000FB60F9211242F933F934F935F936F933D
:100EB0007F938F939F93AF93BF93EF93FF938EEAAC
:100EC00091E00E943902FF91EF91BF91AF919F9104
:100ED0008F917F916F915F914F913F912F910F90E3
:100EE0000FBE0F901F9018951F920F920FB60F9282
:100EF00011242F938F939F93EF93FF93E091BE0163
:100F0000F091BF018081E091C401F091C50182FDA3
:100F10001BC090818091C7018F5F8F732091C801A2
:100F2000821741F0E091C701F0E0E255FE4F958F46
:100F30008093C701FF91EF919F918F912F910F9017
:100F40000FBE0F901F9018958081F4CF1F920F92C3
:100F50000FB60F9211242F933F938F939F93AF93CC
:100F6000BF938091AA019091AB01A091AC01B09187
:100F7000AD013091970123E0230F2D3758F50196ED
:100F8000A11DB11D209397018093AA019093AB01FD
:100F9000A093AC01B093AD0180919801909199011B
:100FA000A0919A01B0919B010196A11DB11D809362
:100FB000980190939901A0939A01B0939B01BF91DE
:100FC000AF919F918F913F912F910F900FBE0F90F6
:100FD0001F90189526E8230F0296A11DB11DD2CFB0
:100FE0001F920F920FB60F9211242F933F934F939E
:100FF0005F936F937F938F939F93AF93BF93CF93A1
:10100000DF93EF93FF9380919601C0916F02D0E040
:1010100087FF24C010928500109284008091960171
:101020008F5F8093960180919601082E000C990B9A
:101030008C179D0724F4809196018C30C4F1809127
:10104000840090918500049680349C4908F47AC00D
:101050008091840090918500049676C080919601DD
:10106000082E000C990B8C179D07C4F6E091960191
:101070008E2FEE0F990BFC01EE0FFF1FE80FF91FEB
:10108000E55BFD4F808186FFC9CFE09196018E2FF1
:10109000EE0F990BFC01EE0FFF1FE80FF91FE55B48
:1010A000FD4F808160E08F730E94C802B7CF20910E
:1010B000840030918500E09196018E2FEE0F990B00
:1010C000FC01EE0FFF1FE80FF91FE55BFD4F81816B
:1010D0009281820F931F9093890080938800E09102
:1010E00096018E2FEE0F990BFC01EE0FFF1FE80FFC
:1010F000F91FE55BFD4F808186FF11C0E0919601ED
:101100008E2FEE0F990BFC01EE0FFF1FE80FF91F5A
:10111000E55BFD4F808161E08F730E94C802FF9103
:10112000EF91DF91CF91BF91AF919F918F917F917F
:101130006F915F914F913F912F910F900FBE0F9044
:101140001F90189580E49CE9909389008093880013
:101150008FEF80939601E3CF1F920F920FB60F92FD
:1011600011242F933F934F935F936F937F938F93AC
:101170009F93AF93BF93EF93FF93E0919E01F09104
:101180009F01309749F0A685B7858585968D91FF9B
:1011900014C09C918923A1F4FF91EF91BF91AF916D
:1011A0009F918F917F916F915F914F913F912F917F
:1011B0000F900FBE0F901F9018959C91892361F797
:1011C000A389B4899C918589809589238C9386898C
:1011D00097890197F1F7608D718DA685B785558543
:1011E00038E020E0CB010197F1F7822F90E0959550
:1011F0008795282F4C91452309F02068315091F7AD
:10120000868D81FD209580919D0190E001968F73E0
:10121000992730919C01381799F0A0919D01B0E079
:10122000AA5ABE4F2C9380939D01828D938D019776
:10123000F1F7A389B4898C919589892B8C93ACCFD4
:10124000868D8160868FF1CF1092B1011092B0012E
:1012500088EE93E0A0E0B0E08093B2019093B301F8
:10126000A093B401B093B50181E191E09093AF01F7
:101270008093AE0185EC90E09093BB018093BA011E
:1012800084EC90E09093BD018093BC0180EC90E0F1
:101290009093BF018093BE0181EC90E09093C101D7
:1012A0008093C00182EC90E09093C3018093C201CF
:1012B00086EC90E09093C5018093C4011092C70121
:1012C0001092C8011092C9011092CA018CE080935B
:1012D0009D028BE080939E02EAEBF0E0E491E093C4
:1012E0009F02E6EAF0E0E491E093A00280E89EE34A
:1012F000A0E0B0E08093A5029093A602A093A7027D
:10130000B093A80280916F028C3008F0A7C091E0E2
:10131000980F90936F028093950290E0FC01EE0F7E
:10132000FF1FE80FF91FE55BFD4F88EB9BE0928301
:1013300081831092900210928F021092920210926A
:101340009102109294021092930290E080E00E9429
:10135000070720918F0230919002811183C02115DF
:10136000310519F0C9010E945F111092900210928C
:101370008F02109294021092930210929202109295
:101380009102109273021092720288EE93E0A0E034
:10139000B0E08093740290937502A0937602B093AC
:1013A000770283E291E09093710280937002109231
:1013B000870210928602109289021092880210927F
:1013C0008B0210928A0210928D0210928C02609110
:1013D0008E026E7F6D7F60938E026695617081E0F4
:1013E000682783E00E94C80261E083E00E94140342
:1013F000E1EBF0E0E491E0938002EDE9F0E0E491CC
:10140000F0E0EE0FFF1FE057FF4F8591949190930E
:1014100082028093810260E082E00E941403809146
:101420008E0281FD04C061E082E00E94C80282E079
:1014300080937C02E0EBF0E0E491E0937D02ECE944
:10144000F0E0E491F0E0EE0FFF1FEA57FF4F8591C7
:10145000949190937F0280937E0208958FEF809302
:10146000950267CF109294021092930262E371E0AA
:10147000C9010E94B71285CFCF93DF9300D0CDB7BB
:10148000DEB7789484B5826084BD84B5816084BD04
:1014900085B5826085BD85B5816085BD80916E0012
:1014A000816080936E001092810080918100826043
:1014B0008093810080918100816080938100809180
:1014C00080008160809380008091B100846080936F
:1014D000B1008091B00081608093B00080917A006B
:1014E000846080937A0080917A00826080937A0091
:1014F00080917A00816080937A0080917A00806880
:1015000080937A001092C100E091BE01F091BF017A
:1015100082E08083E091BA01F091BB011082E091FA
:10152000BC01F091BD018FEC80831092C601E09167
:10153000C201F091C30186E08083E091C001F09187
:10154000C101808180618083E091C001F091C1017F
:10155000808188608083E091C001F091C101808129
:1015600080688083E091C001F091C10180818F7D0E
:10157000808310928B0210928A021092890210923C
:10158000880210928702109286028DE991E0909372
:101590008D0280938C0290917C02963108F047C0B6
:1015A0002DEB30E030938702209386022BE931E067
:1015B00030938902209388022CE231E030938B0231
:1015C00020938A022091680084E0983048F031E04E
:1015D0009E3008F430E081E001C0880F3A95EAF7C8
:1015E000822B809368002DE630E0983050F02BE697
:1015F00030E09E3030F02CE630E0963110F030E0F4
:1016000020E03093840220938302292F30E0983029
:1016100008F06AC081E001C0880F9A95EAF78093CC
:10162000850280918C0290918D020197F1F7809153
:101630008A0290918B02892B49F1E0919E01F091F1
:101640009F0182E0E037F80709F1309739F0A3896C
:10165000B4899C918589809589238C9380918E0291
:101660008E7F80938E0210929D0110929C0180E7E4
:1016700092E090939F0180939E01E0918302F0910C
:101680008402808190918502892B80830E9450037F
:101690008CE390E00E948D0061E084E00E941403DE
:1016A00061E087E00E94140361E088E00E94140377
:1016B00080E0282E80E0382E11E09AE1A92EB12C8E
:1016C00024E1822E912C0E940004882341F0809115
:1016D0009E028B30B1F018F08551823090F160E0BD
:1016E00070E080EC9FE714C09E3040F42850310930
:1016F00081E001C0880F2A95EAF791CF2E50310979
:10170000F7CF60919A0270E090E080E00E94510E65
:101710000E9453106B017093A4016093A3010E9477
:101720000004882349F080919E028B3081F120F0E3
:101730008551823008F474C060E070E080EC9FE76F
:101740002DC000919A02602F6F7770E090E080E0EA
:101750000E94530E20E030E040E853E40E948E0ED9
:101760002B013C0160919B0270E090E080E00E94C0
:10177000530EA30192010E94E70F2DEC3CEC4CECC0
:101780005DE30E948E0E07FFC3CF9058C1CF6091DA
:10179000980270E090E080E00E94510E0E94531089
:1017A0007093A2016093A101C6010E94D7068091A7
:1017B000A1019091A2010E94D70680E792E00E94C9
:1017C0007605892B09F44DC080E792E00E948E05D2
:1017D00089831A82E0909302F09094029FEFE91AB5
:1017E000F90AC7010E940707882399F020918F0208
:1017F000309190028091930290919402BE016F5FAC
:101800007F4F820F931F0E94B712F0929402E092D2
:10181000930265E070E080E090E00E94CE03CDCFBF
:101820006091980270E090E080E00E94510E20E00C
:1018300030E040E853E40E948E0E2B013C016091A1
:10184000990270E090E080E00E94530EA3019201A3
:101850000E94E70F2DEC3CEC4CEC5DE30E948E0EF9
:101860009DCF0091A901802F0E94D80582E391E0CD
:101870000E9435078111DFC140919302509194027B
:1018800060918F02709190028EEA91E00E94BB01FC
:1018900081E391E00E943507882389F01093A60127
:1018A0008DE290E090930601809305018091A5015F
:1018B000882309F419C1909203018092020183E305
:1018C00091E00E9435078823B9F01092A60110928A
:1018D000A8011092A7011092A9018DE290E09093C7
:1018E0000601809305018091A501882309F401C1B7
:1018F000909203018092020185E391E00E943507F6
:10190000882389F08DE290E0909306018093050191
:101910001092A6018091A501882309F4EFC090924E
:1019200003018092020187E391E00E943507811153
:101930001093A50189E391E00E943507811110926F
:10194000A501E090A301F090A4018091A601882355
:1019500009F416C18BE391E00E9435070091A501BF
:101960008823E1F0002309F4CEC080910201909118
:101970000301893191052CF4019690930301809322
:10198000020160910201709103016E157F050CF058
:10199000CBC010920401C7010E94C9058DE391E0FC
:1019A0000E943507882309F4E5C0002309F4C2C06A
:1019B0008091020190910301823191052CF00197F1
:1019C00090930301809302016091020170910301E1
:1019D0006E157F050CF0ABC010920401C7010E9488
:1019E000C90560910201709103016E157F050CF02D
:1019F000C4C010920401C7010E94C9058FE391E0A1
:101A00000E943507882391F080910501909106018D
:101A1000883391052CF4019690930601809305017B
:101A20008091A1019091A2010E945F0681E491E062
:101A30000E943507882391F080910501909106015D
:101A4000833291052CF00197909306018093050154
:101A50008091A1019091A2010E945F068091A10155
:101A60009091A2010E945F0683E491E00E943507F5
:101A700081111093A00185E491E00E943507811146
:101A80001092A0018091A0010E94B20590E080E038
:101A90000E94070720918F02309190028111C1C0EE
:101AA0002115310519F0C9010E945F1110929002B1
:101AB00010928F021092940210929302109292024E
:101AC0001092910264EF71E080E090E00E94CE03FA
:101AD0002114310409F4F7CD0E942502882309F46A
:101AE000F2CD0E940000EFCDB0920101A092000162
:101AF000E6CEB0920101A0920001FECEB0920101AB
:101B0000A092000110CF80910001909101018132DB
:101B100091052CF40196909301018093000160914E
:101B200000017091010131CF1093040134CF109363
:101B3000040154CF809100019091010186319105FB
:101B40002CF00197909301018093000160910001B6
:101B5000709101016E157F0554F410920401C701C4
:101B60000E94C90560910001709101013ECF109360
:101B70000401F5CF0023B1F334CF109304013BCF20
:101B800097E2E916F1040CF449C01092040187E4CD
:101B900091E00E94350781111093A90189E491E039
:101BA0000E94350781111092A90183E491E00E94FF
:101BB000350781111093A00185E491E00E9435075B
:101BC00081111092A0018BE491E00E9435078111F0
:101BD0001093A8018DE491E00E94350781111092C5
:101BE000A8018FE491E00E94350781111093A701AD
:101BF00081E591E00E94350781111092A701809143
:101C0000A9010E94D805609104018091A7010E945A
:101C1000C0058091A8010E94B90534CF109304013A
:101C2000B6CF109294021092930262E371E0C90160
:101C30000E94B71247CF802F0E94D80560910401FF
:101C40008091A7010E94C0058091A8010E94B9055A
:101C50008091A0010E94B20535CF83E291E090937C
:101C600071028093700280919E0190919F01805734
:101C7000924071F4E0918302F0918402908180910E
:101C8000850280958923808310929F0110929E0186
:101C900080918F0290919002009711F00C945F1147
:101CA0000895E89409C097FB3EF49095809570954F
:101CB00061957F4F8F4F9F4F9923A9F0F92F96E998
:101CC000BB279395F695879577956795B795F1110D
:101CD000F8CFFAF4BB0F11F460FF1BC06F5F7F4FAA
:101CE0008F4F9F4F16C0882311F096E911C07723BC
:101CF00021F09EE8872F762F05C0662371F096E8C5
:101D0000862F70E060E02AF09A95660F771F881F93
:101D1000DAF7880F9695879597F908950E94A10E96
:101D20000C94120F0E94040F38F00E940B0F20F049
:101D3000952311F00C94FB0E0C94010F11240C94BC
:101D4000460F0E94230F70F3959FC1F3950F50E04B
:101D5000551F629FF001729FBB27F00DB11D639F5D
:101D6000AA27F00DB11DAA1F649F6627B00DA11D03
:101D7000661F829F2227B00DA11D621F739FB00DA9
:101D8000A11D621F839FA00D611D221F749F332719
:101D9000A00D611D231F849F600D211D822F762FB2
:101DA0006A2F11249F5750409AF0F1F088234AF08F
:101DB000EE0FFF1FBB1F661F771F881F91505040FB
:101DC000A9F79E3F510580F00C94FB0E0C94460F32
:101DD0005F3FE4F3983ED4F3869577956795B79582
:101DE000F795E7959F5FC1F7FE2B880F911D96959C
:101DF000879597F9089597F99F6780E870E060E00C
:101E000008959FEF80EC089500240A941616170693
:101E100018060906089500240A94121613061406DB
:101E200005060895092E0394000C11F4882352F03E
:101E3000BB0F40F4BF2B11F460FF04C06F5F7F4FF6
:101E40008F4F9F4F089557FD9058440F551F59F0DD
:101E50005F3F71F04795880F97FB991F61F09F3F97
:101E600079F087950895121613061406551FF2CFC0
:101E70004695F1DF08C0161617061806991FF1CF10
:101E800086957105610508940895E894BB27662737
:101E90007727CB0197F90895052E97FB1EF4009440
:101EA0000E94630F57FD07D00E94B50F07FC03D0B7
:101EB0004EF40C94630F50954095309521953F4F0B
:101EC0004F4F5F4F089590958095709561957F4F26
:101ED0008F4F9F4F08950E94D70FA59F900DB49FDD
:101EE000900DA49F800D911D11240895B7FF0C94AF
:101EF0006B0F0E946B0F821B930B08952F923F92E2
:101F00004F925F926F927F928F929F92AF92BF9209
:101F1000CF92DF92EF92FF920F931F93CF93DF93B5
:101F2000CDB7DEB7CA1BDB0B0FB6F894DEBF0FBE12
:101F3000CDBF09942A88398848885F846E847D845F
:101F40008C849B84AA84B984C884DF80EE80FD8061
:101F50000C811B81AA81B981CE0FD11D0FB6F894D7
:101F6000DEBF0FBECDBFED010895A1E21A2EAA1B60
:101F7000BB1BFD010DC0AA1FBB1FEE1FFF1FA21739
:101F8000B307E407F50720F0A21BB30BE40BF50B36
:101F9000661F771F881F991F1A9469F760957095BF
:101FA000809590959B01AC01BD01CF010895A29F42
:101FB000B001B39FC001A39F700D811D1124911D1D
:101FC000B29F700D811D1124911D08955058BB279B
:101FD000AA270E94FE0F0C94120F0E94040F38F0E3
:101FE0000E940B0F20F039F49F3F19F426F40C9453
:101FF000010F0EF4E095E7FB0C94FB0EE92F0E9415
:10200000230F58F3BA17620773078407950720F068
:1020100079F4A6F50C94450F0EF4E0950B2EBA2F2B
:10202000A02D0B01B90190010C01CA01A0011124DE
:10203000FF27591B99F0593F50F4503E68F11A168A
:10204000F040A22F232F342F4427585FF3CF46951B
:1020500037952795A795F0405395C9F77EF41F163D
:10206000BA0B620B730B840BBAF09150A1F0FF0F07
:10207000BB1F661F771F881FC2F70EC0BA0F621FF3
:10208000731F841F48F4879577956795B795F795E3
:102090009E3F08F0B0CF9395880F08F09927EE0F78
:1020A0009795879508950E945A106894B1110C94E1
:1020B000460F08950E942B0F88F09F5798F0B92F74
:1020C0009927B751B0F0E1F0660F771F881F991F6D
:1020D0001AF0BA95C9F714C0B13091F00E94450FBB
:1020E000B1E008950C94450F672F782F8827B85FCB
:1020F00039F0B93FCCF3869577956795B395D9F7C5
:102100003EF490958095709561957F4F8F4F9F4FCE
:102110000895991B79E004C0991F961708F0961B43
:10212000881F7A95C9F78095089597FB072E16F4B6
:10213000009407D077FD09D00E94A91007FC05D0B4
:102140003EF4909581959F4F0895709561957F4FCE
:102150000895AA1BBB1B51E107C0AA1FBB1FA617EE
:10216000B70710F0A61BB70B881F991F5A95A9F740
:1021700080959095BC01CD010895EE0FFF1F05904D
:10218000F491E02D09940F931F93CF93DF93823046
:10219000910510F482E090E0E091AC02F091AD0284
:1021A00030E020E0B0E0A0E0309799F4211531054F
:1021B00009F44AC0281B390B24303105D8F58A812F
:1021C0009B816115710589F1FB0193838283FE0177
:1021D00011C0408151810281138148175907E0F0F5
:1021E0004817590799F4109761F012960C931297BB
:1021F00013961C933296CF01DF91CF911F910F91CF
:1022000008950093AC021093AD02F4CF211531056F
:1022100051F04217530738F0A901DB019A01BD01C3
:10222000DF01F801C1CFEF01F9CF9093AD028093A8
:10223000AC02CDCFFE01E20FF31F819391932250A8
:10224000310939832883D7CF2091AA023091AB027C
:10225000232B41F42091090130910A013093AB0204
:102260002093AA0220910701309108012115310520
:1022700041F42DB73EB740910B0150910C01241B46
:10228000350BE091AA02F091AB02E217F307A0F43C
:102290002E1B3F0B2817390778F0AC014E5F5F4FBC
:1022A0002417350748F04E0F5F1F5093AB02409341
:1022B000AA02819391939FCFF0E0E0E09CCFCF936F
:1022C000DF930097E9F0FC01329713821282A0910C
:1022D000AC02B091AD02ED0130E020E01097A1F426
:1022E00020813181820F931F2091AA023091AB028D
:1022F0002817390709F061C0F093AB02E093AA02F6
:10230000DF91CF910895EA01CE17DF07E8F54A8102
:102310005B819E0141155105B1F7E901FB83EA8319
:1023200049915991C40FD51FEC17FD0761F48081C5
:1023300091810296840F951FE90199838883828198
:1023400093819B838A83F0E0E0E012968D919C91CB
:1023500013970097B9F52D913C911197CD010296F5
:10236000820F931F2091AA023091AB0228173907E0
:1023700039F6309751F51092AD021092AC02B0933D
:10238000AB02A093AA02BCCFD383C2834081518108
:10239000840F951FC817D90761F44E5F5F4F88817E
:1023A0009981480F591F518340838A819B81938370
:1023B00082832115310509F0B0CFF093AD02E0938F
:1023C000AC029ECFFD01DC01C0CF13821282D7CFB9
:1023D000B0E0A0E0EEEEF1E10C94800F8C010097EC
:1023E00051F4CB010E94C3108C01C801CDB7DEB7F8
:1023F000E0E10C949C0FFC01E60FF71F9C012250BA
:102400003109E217F30708F49DC0D901CD91DC91A1
:102410001197C617D70798F0C530D10530F3CE0114
:1024200004978617970708F3C61BD70B2297C1930B
:10243000D1936D937C93CF010E945F11D6CF5B0146
:10244000AC1ABD0A4C018C0E9D1EA091AC02B0913D
:10245000AD02512C412CF12CE12C109731F58091DB
:10246000AA029091AB028815990509F05CC0461646
:10247000570608F058C08091070190910801009715
:1024800041F48DB79EB740910B0150910C01841B14
:10249000950BE817F90708F055C0F093AB02E093ED
:1024A000AA02F90171836083A0CF8D919C9111974D
:1024B00012966C90129713967C901397A815B905F5
:1024C00059F56C0142E0C40ED11CCA14DB0420F1A2
:1024D000AC014A195B09DA011296159780F0628205
:1024E000738251834083D9016D937C93E114F1048D
:1024F00071F0D7011396FC93EE93129776CF229644
:102500008C0F9D1FF90191838083F301EFCFF0932E
:10251000AD02E093AC0269CF4816590608F42C01CD
:102520007D01D3019ACFCB010E94C3107C0100979B
:1025300049F0AE01B8010E94A512C8010E945F11C6
:10254000870153CF10E000E050CFFB01DC0102C057
:1025500001900D9241505040D8F70895FB01DC01E5
:102560008D91019080190110D9F3990B0895FB0109
:10257000DC0101900D920020E1F7089510E0C2E621
:10258000D0E004C0FE010E94BD102196C336D107E1
:06259000C9F7F894FFCF2B
:102596001A001400012D000000AE028000000000A9
:1025A600005B02BB01E801A8021902F7010B020059
:1025B6000000001A05BB01AF05190576058E050159
:1025C6000561006D00720078007900730075007077
:1025D6000069006C0074006F00630066006E00689E
:0425E600006500008C
:00000001FF
